:02000000822D4F
:0E000600F201F101F001F801F30100300800F1
:10001400FB14FB1F1428FF30F300F200F100F00082
:08002400FA0DF20CFF30080098
:08002C00FA1FF2130030080076
:100034007B15FB1F24280130F300F201F101F001CC
:08004400FA0DF20CFF30080078
:10004C00831203172108F2007208F100F20A220849
:10005C00F000A20A700884000008F0007108840007
:10006C007008800071088400000803193E282A28B3
:06007C002108F00008005D
:1000820083120313FA017308031D7A147708031D00
:10009200FA147A0803198D28033A031958287A1892
:1000A2005528F61F8B288928F21F89288B28720869
:1000B2008039FA00F21376088039F6137A060319AA
:1000C20066287A08031989288B287708730203198E
:1000D2006D28031C8128852876087202031974286A
:1000E200031C812885287508710203197B28031CCB
:1000F200812885287408700203198D280318852821
:10010200FA0803198B288928FA08031989288B28E9
:100112000314080003100800031403150800080064
:100122007B14FB1F9C28F201FA1FFF30F200F10042
:0A013200F000FA0DF20CFF30080097
:0E013C008312031711088A00100882000800C1
:10014A0083120313FB017308031D77080319FC28A4
:10015A0072087606FA007708F3077E30031CB9287E
:10016A00F3020318FF28BC28F302031C02297208B1
:10017A00F8007108FC007008FD00F817F617031064
:10018A00F201F101F0011830A0007D1CD628740894
:10019A00F00775080318750FF10776080318760F2C
:1001AA00F207F20CF10CF00CF80CFC0CFD0C03102D
:1001BA00A00BCA28F21BE628F80DF00DF10DF20D7E
:1001CA00F3037B1B701CF828F81FF828F00A0319A0
:1001DA00F10A0319F20A031DF828F20CF10CF00CCB
:1001EA00F30A0319FF28FA1FF21300300429013019
:1001FA000320042902300A20042904301A200000AE
:02020A000800EA
:10020C00A0017208031D1B297108F2007008F1008F
:10021C00F001A0157208031D1B297108F200F101F1
:10022C00A01120167208031929292008F302031DB6
:10023C00031C2D290310F21B3129F00DF10DF20DC9
:10024C00F30B21292D290130FC0003203429023025
:0E025C00FC001A2034290430FC001620080093
:10026A0083120313F8010830FC00700DF80D7408AE
:10027A00F80203184229F8070310F00DFC0B3A297B
:02028A0008006A
:10028C000E3083120313FD00FD0B4A2900000800F9
:10029C00831603139818542900004E298312031750
:0802AC0021080313990008006A
:1002B400831203179F01A00116089B0017089C00D6
:1002C40018089D0019089E001E08FF3A031D742992
:1002D4001D08FF3A031D74291C08FF3A031D7429E5
:1002E4001B08FF3A031D7E291A08A1002730A2002B
:1002F40026200330F000752B01300313EF000317A1
:100304009D1F912980301D06F00070089D00031385
:10031400EF0A03171A0884002D3080009A0A00306F
:10032400F0001E06031DA02970081D06031DA02948
:1003340070081C06031DA0291B08003A031DA929E7
:100344001A08A1002130A2002620F001752B1E08F6
:10035400FF3A031DB7291D08003A031DB7291C08DD
:10036400003A031DB7291B08003A031DC2291A08C5
:10037400A1002330A200262003136F08F000752B80
:100384000030F4000030F5000030F6007F30F70054
:1003940003171B08F0001C08F1001D08F2001E08DA
:1003A400F3004120013003180030F00070080319F5
:1003B400F82903171B08F0001C08F1001D08F200BF
:1003C4001E08F3000030F4000030F5002030F60081
:1003D4008230F700A520700803179B0071089C0069
:1003E40072089D0073089E00A003C2290317003001
:1003F400F4000030F5002030F6008230F7001B08CE
:10040400F0001C08F1001D08F2001E08F300412052
:100414000130031C0030F000700803192E2A031762
:100424001B08F0001C08F1001D08F2001E08F30070
:10043400CD30F400CC30F5004C30F6007B30F700C2
:10044400A520700803179B0071089C0072089D008A
:1004540073089E00A00AF8290317FF301B05F80053
:10046400FF301C05F9007F301D05FA0000301E0521
:10047400FB007808F4007908F5007A08F6007B0898
:10048400F700F40DF50DF60DF70D741000301B0593
:10049400F00000301C05F10000301D05F200FF30B3
:1004A4001E05F30070089B0071089C0072089D00F3
:1004B40073089E0074081B04F00075081C04F10006
:1004C40076081D04F20077081E04F30070089B00F0
:1004D40071089C0072089D0073089E007F301E0204
:1004E400F000700883160313EF0001308312031722
:1004F4009E007008F4001B08F0001C08F1001D08A1
:10050400F2001E08F300740803198F2AF00DF10D90
:10051400F20DF30D7010FF3E862A70089B007108DF
:100524009C0072089D0073089E001E08303EF00077
:100534001A088400700880009A0A80302006F000AF
:100544008030013A7002031CB02A8030063AF00071
:10055400803020067002031CB02AB72A1A088400CF
:100564002E3080009A0A01309F0006308316031350
:10057400EF006F08003A03191B2B831203179E0127
:100584001B08F0001C08F1001D08F2001E08F3000F
:10059400F00DF10DF20DF30D7010F00DF10DF20DE3
:1005A400F30D70101B08F0071C0803181C0FF1074B
:1005B4001D0803181D0FF2071E0803181E0FF3076A
:1005C40070089B0071089C0072089D0073089E00CF
:1005D4001B08F0001C08F1001D08F2001E08F300BF
:1005E400F00DF10DF20DF30D701070089B00710801
:1005F4009C0072089D0073089E001E08303EF000A7
:100604001A088400700880009A0A1F08003A031D23
:10061400172BA0032008003A031D172B1A08840087
:100624002E3080009A0A01309F0083160313EF03D3
:10063400BB2AFF30831203171A0784000008303ADC
:10064400031D262B9A031B2BFF301A078400000876
:100654002E3A031D2E2B9A032008003A0319712BFE
:100664001A088400653080009A0A80302006F00061
:100674008030003A70020318472B1A0884002D308A
:1006840080009A0A2008003CA00020088316031367
:10069400EF00831203172008093C0318602B0A306B
:1006A400F400831603136F08F00035213030F0078F
:1006B40003171A088400700880009A0A0A30F400AC
:1006C400831603136F08F00035217808F0003030EA
:1006D400F00703171A088400700880009A0A1A08A1
:0806E40084008001F001080010
:1006EC00C330831203139F05C0309F006F08F000C6
:1006FC00F00D7010F00D701070089F0483169F178A
:10070C0083121F1446219F149F1C8E2B00008A2BD2
:10071C001F101E08F100F00183161E08F0040030B3
:04072C00F1040800CC
:10073000831203137008F8007108F000F101F20150
:10074000F301FB01FC019630F300FA017008F1009F
:0C0750007808F000F801F2010621080012
:10075C0083120313B10A3108053A031DB72B01307C
:10076C00B100CC2B0714871407118711DC2B071051
:10077C00871407158711DC2B0710871007158715B1
:10078C00DC2B0714871007118715DC2B3108013A75
:10079C000319B82B3108023A0319BD2B3108033A5F
:0E07AC000319C22B3108043A0319C72B0800A9
:1007BA0083120313E8036808003A031DE62B04308A
:1007CA00E800FB2B08148814081188110B2C081058
:1007DA008814081588110B2C08108810081588151C
:1007EA000B2C08148810081188150B2C6808013A7C
:1007FA000319E72B6808023A0319EC2B6808033A35
:0E080A000319F12B6808043A0319F62B0800B5
:1008180083120313E70A6708053A031D152C0130F4
:10082800E7002A2C08168816081388133A2C081291
:100838008816081788133A2C081288120817881780
:100848003A2C08168812081388173A2C6708013AB8
:100858000319162C6708023A03191B2C6708033A78
:0E0868000319202C6708043A0319252C0800F8
:1008760083120313E7036708003A031D442C043070
:10088600E700592C0816881608138813692C0812D5
:10089600881608178813692C0812881208178817F3
:1008A600692C0816881208138817692C6708013AFC
:1008B6000319452C6708023A03194A2C6708033ABC
:0E08C60003194F2C6708043A0319542C08003C
:1008D400831203131A08F100981C722C18121816AC
:0608E4007108F00008009D
:1008EA0083120313E80A6808053A031D7E2C0130B7
:1008FA00E800932C0814881408118811A32C0810F6
:10090A00881408158811A32C081088100815881552
:10091A00A32C0814881008118815A32C6808013A1A
:10092A0003197F2C6808023A0319842C6808033AD1
:0E093A000319892C6808043A03198E2C080052
:0E0948000030831203138C1A0130F0000800F7
:1009560083120313B1033108003A031DB42C04308B
:10096600B100C92C0714871407118711D92C071059
:10097600871407158711D92C0710871007158715B7
:10098600D92C0714871007118715D92C3108013A7D
:100996000319B52C3108023A0319BA2C3108033A67
:0E09A6000319BF2C3108043A0319C42C0800B1
:1009B40083120313FB0173080319172D7208FA003D
:1009C400F2178E30F302F31F1A2DF309F30A0830DD
:1009D4007302031CFD2CF300F10D7208F100F20107
:1009E40008307302031CFD2CF300F10DF1017308B0
:1009F400031D0310052D73080319052D0310F20CB4
:100A0400F10CF30B002D7B1B711C0F2D031C0F2D00
:100A1400F10A0319F20AF21B262DFA1F292DF209F5
:100A2400F109F10A0319F20A292DF201F101292D24
:100A34007B14FB1F2C2DF201FA1F2C2DFF30F2002A
:100A4400F100FA0DF20C2C2D0130FC002E2D00309B
:100A5400FC002E2DFF30FC00FC080319322D9120E0
:0A0A64007108F0007208F1000800AC
:100A6E0083160313981690308312980083168717F7
:100A7E00071383128C1E462D1A08F000402D080015
:100A8E009E208A110A128000840A900A0319910A84
:080A9E00F003031D472D0800C1
:100AA600FF3083120313EA00FF30EB00FF30EC0047
:100AB600FF30C3309F05C0309F0083169F178312F7
:040AC6001F140800F1
:100ACA0083120317960103136F0884000008831624
:100ADA00EF006F08003A0319812D6F08831203177C
:100AEA00A1004E210317960A160803136F07840004
:0A0AFA0000088316EF006E2D0800BF
:100B04008A1500208A11831603138801FF3086009A
:100B14000710871007118711071203178901013085
:100B24008800831203138601FF3083169500811316
:100B340083120814881408118811081688160813DB
:100B4400881307148714071187113330831699000B
:100B5400181537250330FB000830FC007730FD0002
:100B6400FD0BB22DFC0BB22DFB0BB22D2B30EF0085
:100B740065250A3083120317A1004E210D30031797
:100B8400A1004E2183160910831209145325A424AD
:100B940070080319A42E6A247008E9000330FC00CD
:100BA4009730FD00FD0BD42DFC0BD42D000000006C
:100BB40069080317A1004E216908583A031DE42D62
:100BC4000130B2006908783A031DE92DB2016908C1
:100BD400313A031DF32D32080319F22D7524F32D38
:100BE400DD236908593A031DF92D0130E60069082F
:100BF400793A031DFE2DE6016908323A031D082ED9
:100C040066080319072E0C24082E3B2469085A3A57
:100C1400031D0E2E0130E50069087A3A031D132ED8
:100C2400E5016908333A031D1D2E650803191C2EBE
:100C3400AE231D2EAB246908453A031D222E071648
:100C44006908653A031D272E07126908343A031D03
:100C54003D2E07164E30FC00EB30FD00FD0B302E10
:100C6400FC0B302E07124E30FC00EB30FD00FD0B68
:100C7400392EFC0B392E6908743A031DA42EEF019A
:100C8400762370088312ED007108EE00982371300A
:100C9400F4003D30F5007A30F6007D30F700A520F1
:100CA4007008031792007108930072089400730887
:100CB4009500120883160313DA008312031713082E
:100CC40083160313DB00831203171408831603131C
:100CD400DC0083120317150883160313DD00831247
:100CE40003171208F0001308F1001408F2001508A5
:100CF400F300DA2470088316ED007108EE00831205
:100D04000317120896001308970014089800150892
:100D14009900DE309A005A21831203137008003AB6
:100D2400031DA12EDE30EF0065250A308312031760
:100D3400A1004E210D300317A1004E21A42ECA306C
:100D4400EF00652583120618C42E0230FB00043020
:100D5400FC00BA30FD00FD0BAD2EFC0BAD2EFB0BE1
:100D6400AD2E0000B530EF0065254A308312EF0048
:100D740065250A3083120317A1004E210D30031795
:100D8400A1004E218618E32E0230FB000430FC0043
:100D9400BA30FD00FD0BCC2EFC0BCC2EFB0BCC2E65
:100DA40000003530EF00652533308312EF006525F0
:100DB4000A3083120317A1004E210D300317A1003E
:100DC4004E210619022F0230FB000430FC00BA3019
:100DD400FD00FD0BEB2EFC0BEB2EFB0BEB2E0000B2
:100DE4004C30EF00652563308312EF0065250A302F
:100DF40083120317A1004E210D300317A1004E21C9
:100E04008619212F0230FB000430FC00BA30FD00AB
:100E1400FD0B0A2FFC0B0A2FFB0B0A2F0000A0303E
:100E2400EF00652561308312EF0065250A308312D7
:100E34000317A1004E210D300317A1004E21C92D27
:020E4400222F5B
:1010000021308400423083120313F000263003178E
:101010009000073091008A1147258A15A03084007E
:10102000153083120313F0007D3003179000073052
:1010300091008A1147258A1563308400023083129B
:101040000313F000A63003179000073091008A11B7
:1010500047258A15B5308400153083120313F0003C
:10106000683003179000073091008A1147258A15D0
:1010700065308400023083120313F000A43003179C
:101080009000073091008A1147258A15CA308400E4
:10109000103083120313F0009230031790000730D2
:1010A00091008A1147258A15673084000230831227
:1010B0000313F000A23003179000073091008A114B
:0610C00047258A15080017
:040E4C00303400340A
:080E500049344E3446340034ED
:080E58004E3461344E340034C5
:0C0E60004C346934733474346F34003443
:020E6C0001344F
:020E6E0001344D
:040E70006A340034AC
:100E7400463469346E342034643465342034433465
:100E840061347234723465347234613420344534DC
:0A0E94006A34653420345934003408
:040E9E00693400347F
:100EA200463469346E342034643465342034433437
:100EB20061347234723465347234613420344534AE
:0A0EC2006A34653420345A340034D9
:040ECC006C3400344E
:100ED000463469346E342034643465342034433409
:100EE0006134723472346534723461342034453480
:0A0EF0006A346534203459340034AC
:100EFA00463469346E3420346434653420344334DF
:100F0A006134723472346534723461342034453455
:0A0F1A006A34653420345A34003480
:100F24006E346F34203473346534203463346F3456
:100F34006E34763469347234743469346F34003402
:020F4400013476
:020F4600013474
:020F4800013472
:020F4A00013470
:040F4C006B340034CE
:04400E00F52F000783
:00000001FF
